{
	"contracts/Counter.sol": {
		"Counter": {
			"abi": [
				{
					"inputs": [],
					"name": "count",
					"outputs": [
						{
							"internalType": "uint256",
							"name": "",
							"type": "uint256"
						}
					],
					"stateMutability": "view",
					"type": "function"
				},
				{
					"inputs": [],
					"name": "dec",
					"outputs": [],
					"stateMutability": "nonpayable",
					"type": "function"
				},
				{
					"inputs": [],
					"name": "get",
					"outputs": [
						{
							"internalType": "uint256",
							"name": "",
							"type": "uint256"
						}
					],
					"stateMutability": "view",
					"type": "function"
				},
				{
					"inputs": [],
					"name": "inc",
					"outputs": [],
					"stateMutability": "nonpayable",
					"type": "function"
				},
				{
					"inputs": [],
					"name": "reset",
					"outputs": [],
					"stateMutability": "nonpayable",
					"type": "function"
				}
			],
			"devdoc": {
				"kind": "dev",
				"methods": {},
				"version": 1
			},
			"evm": {
				"assembly": "    /* \"contracts/Counter.sol\":58:607  contract Counter {... */\n  mstore(0x40, 0x80)\n  callvalue\n  dup1\n  iszero\n  tag_1\n  jumpi\n  0x00\n  dup1\n  revert\ntag_1:\n  pop\n  dataSize(sub_0)\n  dup1\n  dataOffset(sub_0)\n  0x00\n  codecopy\n  0x00\n  return\nstop\n\nsub_0: assembly {\n        /* \"contracts/Counter.sol\":58:607  contract Counter {... */\n      mstore(0x40, 0x80)\n      callvalue\n      dup1\n      iszero\n      tag_1\n      jumpi\n      0x00\n      dup1\n      revert\n    tag_1:\n      pop\n      jumpi(tag_2, lt(calldatasize, 0x04))\n      shr(0xe0, calldataload(0x00))\n      dup1\n      0x06661abd\n      eq\n      tag_3\n      jumpi\n      dup1\n      0x371303c0\n      eq\n      tag_4\n      jumpi\n      dup1\n      0x6d4ce63c\n      eq\n      tag_5\n      jumpi\n      dup1\n      0xb3bcfa82\n      eq\n      tag_6\n      jumpi\n      dup1\n      0xd826f88f\n      eq\n      tag_7\n      jumpi\n    tag_2:\n      0x00\n      dup1\n      revert\n        /* \"contracts/Counter.sol\":81:101  uint256 public count */\n    tag_3:\n      tag_8\n      sload(0x00)\n      dup2\n      jump\n    tag_8:\n      mload(0x40)\n        /* \"#utility.yul\":160:185   */\n      swap1\n      dup2\n      mstore\n        /* \"#utility.yul\":148:150   */\n      0x20\n        /* \"#utility.yul\":133:151   */\n      add\n        /* \"contracts/Counter.sol\":81:101  uint256 public count */\n      mload(0x40)\n      dup1\n      swap2\n      sub\n      swap1\n      return\n        /* \"contracts/Counter.sol\":269:318  function inc() public {... */\n    tag_4:\n      tag_12\n      tag_13\n      jump\t// in\n    tag_12:\n      stop\n        /* \"contracts/Counter.sol\":149:223  function get() public view returns (uint256) {... */\n    tag_5:\n        /* \"contracts/Counter.sol\":185:192  uint256 */\n      0x00\n        /* \"contracts/Counter.sol\":211:216  count */\n      sload\n        /* \"contracts/Counter.sol\":149:223  function get() public view returns (uint256) {... */\n      jump(tag_8)\n        /* \"contracts/Counter.sol\":364:510  function dec() public {... */\n    tag_6:\n      tag_12\n      tag_18\n      jump\t// in\n        /* \"contracts/Counter.sol\":555:605  function reset() public {... */\n    tag_7:\n      tag_12\n        /* \"contracts/Counter.sol\":597:598  0 */\n      0x00\n        /* \"contracts/Counter.sol\":589:598  count = 0 */\n      dup1\n      sstore\n        /* \"contracts/Counter.sol\":555:605  function reset() public {... */\n      jump\n        /* \"contracts/Counter.sol\":269:318  function inc() public {... */\n    tag_13:\n        /* \"contracts/Counter.sol\":310:311  1 */\n      0x01\n        /* \"contracts/Counter.sol\":301:306  count */\n      0x00\n      dup1\n        /* \"contracts/Counter.sol\":301:311  count += 1 */\n      dup3\n      dup3\n      sload\n      tag_22\n      swap2\n      swap1\n      tag_23\n      jump\t// in\n    tag_22:\n      swap1\n      swap2\n      sstore\n      pop\n      pop\n        /* \"contracts/Counter.sol\":269:318  function inc() public {... */\n      jump\t// out\n        /* \"contracts/Counter.sol\":364:510  function dec() public {... */\n    tag_18:\n        /* \"contracts/Counter.sol\":441:442  0 */\n      0x00\n        /* \"contracts/Counter.sol\":433:438  count */\n      dup1\n      sload\n        /* \"contracts/Counter.sol\":433:442  count > 0 */\n      gt\n        /* \"contracts/Counter.sol\":425:483  require(count > 0, \"Counter: cannot decrement below zero\") */\n      tag_26\n      jumpi\n      mload(0x40)\n      shl(0xe5, 0x461bcd)\n      dup2\n      mstore\n        /* \"#utility.yul\":660:662   */\n      0x20\n        /* \"contracts/Counter.sol\":425:483  require(count > 0, \"Counter: cannot decrement below zero\") */\n      0x04\n      dup3\n      add\n        /* \"#utility.yul\":642:663   */\n      mstore\n        /* \"#utility.yul\":699:701   */\n      0x24\n        /* \"#utility.yul\":679:697   */\n      dup1\n      dup3\n      add\n        /* \"#utility.yul\":672:702   */\n      mstore\n        /* \"#utility.yul\":738:772   */\n      0x436f756e7465723a2063616e6e6f742064656372656d656e742062656c6f7720\n        /* \"#utility.yul\":718:736   */\n      0x44\n      dup3\n      add\n        /* \"#utility.yul\":711:773   */\n      mstore\n      shl(0xe0, 0x7a65726f)\n        /* \"#utility.yul\":789:807   */\n      0x64\n      dup3\n      add\n        /* \"#utility.yul\":782:816   */\n      mstore\n        /* \"#utility.yul\":833:852   */\n      0x84\n      add\n        /* \"contracts/Counter.sol\":425:483  require(count > 0, \"Counter: cannot decrement below zero\") */\n      mload(0x40)\n      dup1\n      swap2\n      sub\n      swap1\n      revert\n    tag_26:\n        /* \"contracts/Counter.sol\":502:503  1 */\n      0x01\n        /* \"contracts/Counter.sol\":493:498  count */\n      0x00\n      dup1\n        /* \"contracts/Counter.sol\":493:503  count -= 1 */\n      dup3\n      dup3\n      sload\n      tag_22\n      swap2\n      swap1\n      tag_30\n      jump\t// in\n        /* \"#utility.yul\":196:323   */\n    tag_32:\n        /* \"#utility.yul\":257:267   */\n      0x4e487b71\n        /* \"#utility.yul\":252:255   */\n      0xe0\n        /* \"#utility.yul\":248:268   */\n      shl\n        /* \"#utility.yul\":245:246   */\n      0x00\n        /* \"#utility.yul\":238:269   */\n      mstore\n        /* \"#utility.yul\":288:292   */\n      0x11\n        /* \"#utility.yul\":285:286   */\n      0x04\n        /* \"#utility.yul\":278:293   */\n      mstore\n        /* \"#utility.yul\":312:316   */\n      0x24\n        /* \"#utility.yul\":309:310   */\n      0x00\n        /* \"#utility.yul\":302:317   */\n      revert\n        /* \"#utility.yul\":328:453   */\n    tag_23:\n        /* \"#utility.yul\":393:402   */\n      dup1\n      dup3\n      add\n        /* \"#utility.yul\":414:424   */\n      dup1\n      dup3\n      gt\n        /* \"#utility.yul\":411:447   */\n      iszero\n      tag_38\n      jumpi\n        /* \"#utility.yul\":427:445   */\n      tag_38\n      tag_32\n      jump\t// in\n    tag_38:\n        /* \"#utility.yul\":328:453   */\n      swap3\n      swap2\n      pop\n      pop\n      jump\t// out\n        /* \"#utility.yul\":863:991   */\n    tag_30:\n        /* \"#utility.yul\":930:939   */\n      dup2\n      dup2\n      sub\n        /* \"#utility.yul\":951:962   */\n      dup2\n      dup2\n      gt\n        /* \"#utility.yul\":948:985   */\n      iszero\n      tag_38\n      jumpi\n        /* \"#utility.yul\":965:983   */\n      tag_38\n      tag_32\n      jump\t// in\n\n    auxdata: 0xa2646970667358221220525d641d5f4686af3901a40975eec6da4ef85eb6d9c01843e1aafffe376d9d6764736f6c634300081a0033\n}\n",
				"bytecode": {
					"linkReferences": {},
					"object": "6080604052348015600e575f80fd5b506101938061001c5f395ff3fe608060405234801561000f575f80fd5b5060043610610055575f3560e01c806306661abd14610059578063371303c0146100735780636d4ce63c1461007d578063b3bcfa8214610084578063d826f88f1461008c575b5f80fd5b6100615f5481565b60405190815260200160405180910390f35b61007b610094565b005b5f54610061565b61007b6100ac565b61007b5f8055565b60015f808282546100a59190610131565b9091555050565b5f80541161010c5760405162461bcd60e51b8152602060048201526024808201527f436f756e7465723a2063616e6e6f742064656372656d656e742062656c6f77206044820152637a65726f60e01b606482015260840160405180910390fd5b60015f808282546100a5919061014a565b634e487b7160e01b5f52601160045260245ffd5b808201808211156101445761014461011d565b92915050565b818103818111156101445761014461011d56fea2646970667358221220525d641d5f4686af3901a40975eec6da4ef85eb6d9c01843e1aafffe376d9d6764736f6c634300081a0033",
					"opcodes": "PUSH1 0x80 PUSH1 0x40 MSTORE CALLVALUE DUP1 ISZERO PUSH1 0xE JUMPI PUSH0 DUP1 REVERT JUMPDEST POP PUSH2 0x193 DUP1 PUSH2 0x1C PUSH0 CODECOPY PUSH0 RETURN INVALID PUSH1 0x80 PUSH1 0x40 MSTORE CALLVALUE DUP1 ISZERO PUSH2 0xF JUMPI PUSH0 DUP1 REVERT JUMPDEST POP PUSH1 0x4 CALLDATASIZE LT PUSH2 0x55 JUMPI PUSH0 CALLDATALOAD PUSH1 0xE0 SHR DUP1 PUSH4 0x6661ABD EQ PUSH2 0x59 JUMPI DUP1 PUSH4 0x371303C0 EQ PUSH2 0x73 JUMPI DUP1 PUSH4 0x6D4CE63C EQ PUSH2 0x7D JUMPI DUP1 PUSH4 0xB3BCFA82 EQ PUSH2 0x84 JUMPI DUP1 PUSH4 0xD826F88F EQ PUSH2 0x8C JUMPI JUMPDEST PUSH0 DUP1 REVERT JUMPDEST PUSH2 0x61 PUSH0 SLOAD DUP2 JUMP JUMPDEST PUSH1 0x40 MLOAD SWAP1 DUP2 MSTORE PUSH1 0x20 ADD PUSH1 0x40 MLOAD DUP1 SWAP2 SUB SWAP1 RETURN JUMPDEST PUSH2 0x7B PUSH2 0x94 JUMP JUMPDEST STOP JUMPDEST PUSH0 SLOAD PUSH2 0x61 JUMP JUMPDEST PUSH2 0x7B PUSH2 0xAC JUMP JUMPDEST PUSH2 0x7B PUSH0 DUP1 SSTORE JUMP JUMPDEST PUSH1 0x1 PUSH0 DUP1 DUP3 DUP3 SLOAD PUSH2 0xA5 SWAP2 SWAP1 PUSH2 0x131 JUMP JUMPDEST SWAP1 SWAP2 SSTORE POP POP JUMP JUMPDEST PUSH0 DUP1 SLOAD GT PUSH2 0x10C JUMPI PUSH1 0x40 MLOAD PUSH3 0x461BCD PUSH1 0xE5 SHL DUP2 MSTORE PUSH1 0x20 PUSH1 0x4 DUP3 ADD MSTORE PUSH1 0x24 DUP1 DUP3 ADD MSTORE PUSH32 0x436F756E7465723A2063616E6E6F742064656372656D656E742062656C6F7720 PUSH1 0x44 DUP3 ADD MSTORE PUSH4 0x7A65726F PUSH1 0xE0 SHL PUSH1 0x64 DUP3 ADD MSTORE PUSH1 0x84 ADD PUSH1 0x40 MLOAD DUP1 SWAP2 SUB SWAP1 REVERT JUMPDEST PUSH1 0x1 PUSH0 DUP1 DUP3 DUP3 SLOAD PUSH2 0xA5 SWAP2 SWAP1 PUSH2 0x14A JUMP JUMPDEST PUSH4 0x4E487B71 PUSH1 0xE0 SHL PUSH0 MSTORE PUSH1 0x11 PUSH1 0x4 MSTORE PUSH1 0x24 PUSH0 REVERT JUMPDEST DUP1 DUP3 ADD DUP1 DUP3 GT ISZERO PUSH2 0x144 JUMPI PUSH2 0x144 PUSH2 0x11D JUMP JUMPDEST SWAP3 SWAP2 POP POP JUMP JUMPDEST DUP2 DUP2 SUB DUP2 DUP2 GT ISZERO PUSH2 0x144 JUMPI PUSH2 0x144 PUSH2 0x11D JUMP INVALID LOG2 PUSH5 0x6970667358 0x22 SLT KECCAK256 MSTORE TSTORE PUSH5 0x1D5F4686AF CODECOPY ADD LOG4 MULMOD PUSH22 0xEEC6DA4EF85EB6D9C01843E1AAFFFE376D9D6764736F PUSH13 0x634300081A0033000000000000 "
				},
				"gasEstimates": {
					"creation": {
						"codeDepositCost": "80600",
						"executionCost": "127",
						"totalCost": "80727"
					},
					"external": {
						"count()": "2259",
						"dec()": "26608",
						"get()": "2300",
						"inc()": "24442",
						"reset()": "5202"
					}
				},
				"methodIdentifiers": {
					"count()": "06661abd",
					"dec()": "b3bcfa82",
					"get()": "6d4ce63c",
					"inc()": "371303c0",
					"reset()": "d826f88f"
				}
			},
			"storageLayout": {
				"storage": [
					{
						"astId": 3,
						"contract": "contracts/Counter.sol:Counter",
						"label": "count",
						"offset": 0,
						"slot": "0",
						"type": "t_uint256"
					}
				],
				"types": {
					"t_uint256": {
						"encoding": "inplace",
						"label": "uint256",
						"numberOfBytes": "32"
					}
				}
			},
			"userdoc": {
				"kind": "user",
				"methods": {},
				"version": 1
			}
		}
	}
}