{
	"contracts/HelloWorld.sol": {
		"HelloWorld": {
			"abi": [
				{
					"inputs": [],
					"name": "retrieve",
					"outputs": [
						{
							"internalType": "string",
							"name": "",
							"type": "string"
						}
					],
					"stateMutability": "view",
					"type": "function"
				},
				{
					"inputs": [
						{
							"internalType": "string",
							"name": "newvalue",
							"type": "string"
						}
					],
					"name": "store",
					"outputs": [],
					"stateMutability": "nonpayable",
					"type": "function"
				}
			],
			"devdoc": {
				"kind": "dev",
				"methods": {},
				"version": 1
			},
			"evm": {
				"assembly": "    /* \"contracts/HelloWorld.sol\":57:251  contract HelloWorld {... */\n  mstore(0x40, 0x80)\n  callvalue\n  dup1\n  iszero\n  tag_1\n  jumpi\n  revert(0x00, 0x00)\ntag_1:\n  pop\n  dataSize(sub_0)\n  dup1\n  dataOffset(sub_0)\n  0x00\n  codecopy\n  0x00\n  return\nstop\n\nsub_0: assembly {\n        /* \"contracts/HelloWorld.sol\":57:251  contract HelloWorld {... */\n      mstore(0x40, 0x80)\n      callvalue\n      dup1\n      iszero\n      tag_1\n      jumpi\n      revert(0x00, 0x00)\n    tag_1:\n      pop\n      jumpi(tag_2, lt(calldatasize, 0x04))\n      shr(0xe0, calldataload(0x00))\n      dup1\n      0x131a0680\n      eq\n      tag_3\n      jumpi\n      dup1\n      0x2e64cec1\n      eq\n      tag_4\n      jumpi\n    tag_2:\n      revert(0x00, 0x00)\n        /* \"contracts/HelloWorld.sol\":105:172  function store(string memory newvalue) public {... */\n    tag_3:\n      tag_5\n      0x04\n      dup1\n      calldatasize\n      sub\n      dup2\n      add\n      swap1\n      tag_6\n      swap2\n      swap1\n      tag_7\n      jump\t// in\n    tag_6:\n      tag_8\n      jump\t// in\n    tag_5:\n      stop\n        /* \"contracts/HelloWorld.sol\":174:249  function retrieve() public view returns(string memory) {... */\n    tag_4:\n      tag_9\n      tag_10\n      jump\t// in\n    tag_9:\n      mload(0x40)\n      tag_11\n      swap2\n      swap1\n      tag_12\n      jump\t// in\n    tag_11:\n      mload(0x40)\n      dup1\n      swap2\n      sub\n      swap1\n      return\n        /* \"contracts/HelloWorld.sol\":105:172  function store(string memory newvalue) public {... */\n    tag_8:\n        /* \"contracts/HelloWorld.sol\":163:168  value */\n      0x00\n        /* \"contracts/HelloWorld.sol\":155:160  value */\n      0x00\n        /* \"contracts/HelloWorld.sol\":155:168  value = value */\n      swap1\n      dup2\n      tag_14\n      swap2\n      swap1\n      tag_15\n      jump\t// in\n    tag_14:\n      pop\n        /* \"contracts/HelloWorld.sol\":105:172  function store(string memory newvalue) public {... */\n      pop\n      jump\t// out\n        /* \"contracts/HelloWorld.sol\":174:249  function retrieve() public view returns(string memory) {... */\n    tag_10:\n        /* \"contracts/HelloWorld.sol\":214:227  string memory */\n      0x60\n        /* \"contracts/HelloWorld.sol\":240:245  value */\n      0x00\n        /* \"contracts/HelloWorld.sol\":233:245  return value */\n      dup1\n      sload\n      tag_17\n      swap1\n      tag_18\n      jump\t// in\n    tag_17:\n      dup1\n      0x1f\n      add\n      0x20\n      dup1\n      swap2\n      div\n      mul\n      0x20\n      add\n      mload(0x40)\n      swap1\n      dup2\n      add\n      0x40\n      mstore\n      dup1\n      swap3\n      swap2\n      swap1\n      dup2\n      dup2\n      mstore\n      0x20\n      add\n      dup3\n      dup1\n      sload\n      tag_19\n      swap1\n      tag_18\n      jump\t// in\n    tag_19:\n      dup1\n      iszero\n      tag_20\n      jumpi\n      dup1\n      0x1f\n      lt\n      tag_21\n      jumpi\n      0x0100\n      dup1\n      dup4\n      sload\n      div\n      mul\n      dup4\n      mstore\n      swap2\n      0x20\n      add\n      swap2\n      jump(tag_20)\n    tag_21:\n      dup3\n      add\n      swap2\n      swap1\n      0x00\n      mstore\n      keccak256(0x00, 0x20)\n      swap1\n    tag_22:\n      dup2\n      sload\n      dup2\n      mstore\n      swap1\n      0x01\n      add\n      swap1\n      0x20\n      add\n      dup1\n      dup4\n      gt\n      tag_22\n      jumpi\n      dup3\n      swap1\n      sub\n      0x1f\n      and\n      dup3\n      add\n      swap2\n    tag_20:\n      pop\n      pop\n      pop\n      pop\n      pop\n      swap1\n      pop\n        /* \"contracts/HelloWorld.sol\":174:249  function retrieve() public view returns(string memory) {... */\n      swap1\n      jump\t// out\n        /* \"#utility.yul\":7:82   */\n    tag_23:\n        /* \"#utility.yul\":40:46   */\n      0x00\n        /* \"#utility.yul\":73:75   */\n      0x40\n        /* \"#utility.yul\":67:76   */\n      mload\n        /* \"#utility.yul\":57:76   */\n      swap1\n      pop\n        /* \"#utility.yul\":7:82   */\n      swap1\n      jump\t// out\n        /* \"#utility.yul\":88:205   */\n    tag_24:\n        /* \"#utility.yul\":197:198   */\n      0x00\n        /* \"#utility.yul\":194:195   */\n      0x00\n        /* \"#utility.yul\":187:199   */\n      revert\n        /* \"#utility.yul\":211:328   */\n    tag_25:\n        /* \"#utility.yul\":320:321   */\n      0x00\n        /* \"#utility.yul\":317:318   */\n      0x00\n        /* \"#utility.yul\":310:322   */\n      revert\n        /* \"#utility.yul\":334:451   */\n    tag_26:\n        /* \"#utility.yul\":443:444   */\n      0x00\n        /* \"#utility.yul\":440:441   */\n      0x00\n        /* \"#utility.yul\":433:445   */\n      revert\n        /* \"#utility.yul\":457:574   */\n    tag_27:\n        /* \"#utility.yul\":566:567   */\n      0x00\n        /* \"#utility.yul\":563:564   */\n      0x00\n        /* \"#utility.yul\":556:568   */\n      revert\n        /* \"#utility.yul\":580:682   */\n    tag_28:\n        /* \"#utility.yul\":621:627   */\n      0x00\n        /* \"#utility.yul\":672:674   */\n      0x1f\n        /* \"#utility.yul\":668:675   */\n      not\n        /* \"#utility.yul\":663:665   */\n      0x1f\n        /* \"#utility.yul\":656:661   */\n      dup4\n        /* \"#utility.yul\":652:666   */\n      add\n        /* \"#utility.yul\":648:676   */\n      and\n        /* \"#utility.yul\":638:676   */\n      swap1\n      pop\n        /* \"#utility.yul\":580:682   */\n      swap2\n      swap1\n      pop\n      jump\t// out\n        /* \"#utility.yul\":688:868   */\n    tag_29:\n        /* \"#utility.yul\":736:813   */\n      0x4e487b7100000000000000000000000000000000000000000000000000000000\n        /* \"#utility.yul\":733:734   */\n      0x00\n        /* \"#utility.yul\":726:814   */\n      mstore\n        /* \"#utility.yul\":833:837   */\n      0x41\n        /* \"#utility.yul\":830:831   */\n      0x04\n        /* \"#utility.yul\":823:838   */\n      mstore\n        /* \"#utility.yul\":857:861   */\n      0x24\n        /* \"#utility.yul\":854:855   */\n      0x00\n        /* \"#utility.yul\":847:862   */\n      revert\n        /* \"#utility.yul\":874:1155   */\n    tag_30:\n        /* \"#utility.yul\":957:984   */\n      tag_68\n        /* \"#utility.yul\":979:983   */\n      dup3\n        /* \"#utility.yul\":957:984   */\n      tag_28\n      jump\t// in\n    tag_68:\n        /* \"#utility.yul\":949:955   */\n      dup2\n        /* \"#utility.yul\":945:985   */\n      add\n        /* \"#utility.yul\":1087:1093   */\n      dup2\n        /* \"#utility.yul\":1075:1085   */\n      dup2\n        /* \"#utility.yul\":1072:1094   */\n      lt\n        /* \"#utility.yul\":1051:1069   */\n      0xffffffffffffffff\n        /* \"#utility.yul\":1039:1049   */\n      dup3\n        /* \"#utility.yul\":1036:1070   */\n      gt\n        /* \"#utility.yul\":1033:1095   */\n      or\n        /* \"#utility.yul\":1030:1118   */\n      iszero\n      tag_69\n      jumpi\n        /* \"#utility.yul\":1098:1116   */\n      tag_70\n      tag_29\n      jump\t// in\n    tag_70:\n        /* \"#utility.yul\":1030:1118   */\n    tag_69:\n        /* \"#utility.yul\":1138:1148   */\n      dup1\n        /* \"#utility.yul\":1134:1136   */\n      0x40\n        /* \"#utility.yul\":1127:1149   */\n      mstore\n        /* \"#utility.yul\":917:1155   */\n      pop\n        /* \"#utility.yul\":874:1155   */\n      pop\n      pop\n      jump\t// out\n        /* \"#utility.yul\":1161:1290   */\n    tag_31:\n        /* \"#utility.yul\":1195:1201   */\n      0x00\n        /* \"#utility.yul\":1222:1242   */\n      tag_72\n      tag_23\n      jump\t// in\n    tag_72:\n        /* \"#utility.yul\":1212:1242   */\n      swap1\n      pop\n        /* \"#utility.yul\":1251:1284   */\n      tag_73\n        /* \"#utility.yul\":1279:1283   */\n      dup3\n        /* \"#utility.yul\":1271:1277   */\n      dup3\n        /* \"#utility.yul\":1251:1284   */\n      tag_30\n      jump\t// in\n    tag_73:\n        /* \"#utility.yul\":1161:1290   */\n      swap2\n      swap1\n      pop\n      jump\t// out\n        /* \"#utility.yul\":1296:1604   */\n    tag_32:\n        /* \"#utility.yul\":1358:1362   */\n      0x00\n        /* \"#utility.yul\":1448:1466   */\n      0xffffffffffffffff\n        /* \"#utility.yul\":1440:1446   */\n      dup3\n        /* \"#utility.yul\":1437:1467   */\n      gt\n        /* \"#utility.yul\":1434:1490   */\n      iszero\n      tag_75\n      jumpi\n        /* \"#utility.yul\":1470:1488   */\n      tag_76\n      tag_29\n      jump\t// in\n    tag_76:\n        /* \"#utility.yul\":1434:1490   */\n    tag_75:\n        /* \"#utility.yul\":1508:1537   */\n      tag_77\n        /* \"#utility.yul\":1530:1536   */\n      dup3\n        /* \"#utility.yul\":1508:1537   */\n      tag_28\n      jump\t// in\n    tag_77:\n        /* \"#utility.yul\":1500:1537   */\n      swap1\n      pop\n        /* \"#utility.yul\":1592:1596   */\n      0x20\n        /* \"#utility.yul\":1586:1590   */\n      dup2\n        /* \"#utility.yul\":1582:1597   */\n      add\n        /* \"#utility.yul\":1574:1597   */\n      swap1\n      pop\n        /* \"#utility.yul\":1296:1604   */\n      swap2\n      swap1\n      pop\n      jump\t// out\n        /* \"#utility.yul\":1610:1758   */\n    tag_33:\n        /* \"#utility.yul\":1708:1714   */\n      dup3\n        /* \"#utility.yul\":1703:1706   */\n      dup2\n        /* \"#utility.yul\":1698:1701   */\n      dup4\n        /* \"#utility.yul\":1685:1715   */\n      calldatacopy\n        /* \"#utility.yul\":1749:1750   */\n      0x00\n        /* \"#utility.yul\":1740:1746   */\n      dup4\n        /* \"#utility.yul\":1735:1738   */\n      dup4\n        /* \"#utility.yul\":1731:1747   */\n      add\n        /* \"#utility.yul\":1724:1751   */\n      mstore\n        /* \"#utility.yul\":1610:1758   */\n      pop\n      pop\n      pop\n      jump\t// out\n        /* \"#utility.yul\":1764:2189   */\n    tag_34:\n        /* \"#utility.yul\":1842:1847   */\n      0x00\n        /* \"#utility.yul\":1867:1933   */\n      tag_80\n        /* \"#utility.yul\":1883:1932   */\n      tag_81\n        /* \"#utility.yul\":1925:1931   */\n      dup5\n        /* \"#utility.yul\":1883:1932   */\n      tag_32\n      jump\t// in\n    tag_81:\n        /* \"#utility.yul\":1867:1933   */\n      tag_31\n      jump\t// in\n    tag_80:\n        /* \"#utility.yul\":1858:1933   */\n      swap1\n      pop\n        /* \"#utility.yul\":1956:1962   */\n      dup3\n        /* \"#utility.yul\":1949:1954   */\n      dup2\n        /* \"#utility.yul\":1942:1963   */\n      mstore\n        /* \"#utility.yul\":1994:1998   */\n      0x20\n        /* \"#utility.yul\":1987:1992   */\n      dup2\n        /* \"#utility.yul\":1983:1999   */\n      add\n        /* \"#utility.yul\":2032:2035   */\n      dup5\n        /* \"#utility.yul\":2023:2029   */\n      dup5\n        /* \"#utility.yul\":2018:2021   */\n      dup5\n        /* \"#utility.yul\":2014:2030   */\n      add\n        /* \"#utility.yul\":2011:2036   */\n      gt\n        /* \"#utility.yul\":2008:2120   */\n      iszero\n      tag_82\n      jumpi\n        /* \"#utility.yul\":2039:2118   */\n      tag_83\n      tag_27\n      jump\t// in\n    tag_83:\n        /* \"#utility.yul\":2008:2120   */\n    tag_82:\n        /* \"#utility.yul\":2129:2183   */\n      tag_84\n        /* \"#utility.yul\":2176:2182   */\n      dup5\n        /* \"#utility.yul\":2171:2174   */\n      dup3\n        /* \"#utility.yul\":2166:2169   */\n      dup6\n        /* \"#utility.yul\":2129:2183   */\n      tag_33\n      jump\t// in\n    tag_84:\n        /* \"#utility.yul\":1848:2189   */\n      pop\n        /* \"#utility.yul\":1764:2189   */\n      swap4\n      swap3\n      pop\n      pop\n      pop\n      jump\t// out\n        /* \"#utility.yul\":2209:2549   */\n    tag_35:\n        /* \"#utility.yul\":2265:2270   */\n      0x00\n        /* \"#utility.yul\":2314:2317   */\n      dup3\n        /* \"#utility.yul\":2307:2311   */\n      0x1f\n        /* \"#utility.yul\":2299:2305   */\n      dup4\n        /* \"#utility.yul\":2295:2312   */\n      add\n        /* \"#utility.yul\":2291:2318   */\n      slt\n        /* \"#utility.yul\":2281:2403   */\n      tag_86\n      jumpi\n        /* \"#utility.yul\":2322:2401   */\n      tag_87\n      tag_26\n      jump\t// in\n    tag_87:\n        /* \"#utility.yul\":2281:2403   */\n    tag_86:\n        /* \"#utility.yul\":2439:2445   */\n      dup2\n        /* \"#utility.yul\":2426:2446   */\n      calldataload\n        /* \"#utility.yul\":2464:2543   */\n      tag_88\n        /* \"#utility.yul\":2539:2542   */\n      dup5\n        /* \"#utility.yul\":2531:2537   */\n      dup3\n        /* \"#utility.yul\":2524:2528   */\n      0x20\n        /* \"#utility.yul\":2516:2522   */\n      dup7\n        /* \"#utility.yul\":2512:2529   */\n      add\n        /* \"#utility.yul\":2464:2543   */\n      tag_34\n      jump\t// in\n    tag_88:\n        /* \"#utility.yul\":2455:2543   */\n      swap2\n      pop\n        /* \"#utility.yul\":2271:2549   */\n      pop\n        /* \"#utility.yul\":2209:2549   */\n      swap3\n      swap2\n      pop\n      pop\n      jump\t// out\n        /* \"#utility.yul\":2555:3064   */\n    tag_7:\n        /* \"#utility.yul\":2624:2630   */\n      0x00\n        /* \"#utility.yul\":2673:2675   */\n      0x20\n        /* \"#utility.yul\":2661:2670   */\n      dup3\n        /* \"#utility.yul\":2652:2659   */\n      dup5\n        /* \"#utility.yul\":2648:2671   */\n      sub\n        /* \"#utility.yul\":2644:2676   */\n      slt\n        /* \"#utility.yul\":2641:2760   */\n      iszero\n      tag_90\n      jumpi\n        /* \"#utility.yul\":2679:2758   */\n      tag_91\n      tag_24\n      jump\t// in\n    tag_91:\n        /* \"#utility.yul\":2641:2760   */\n    tag_90:\n        /* \"#utility.yul\":2827:2828   */\n      0x00\n        /* \"#utility.yul\":2816:2825   */\n      dup3\n        /* \"#utility.yul\":2812:2829   */\n      add\n        /* \"#utility.yul\":2799:2830   */\n      calldataload\n        /* \"#utility.yul\":2857:2875   */\n      0xffffffffffffffff\n        /* \"#utility.yul\":2849:2855   */\n      dup2\n        /* \"#utility.yul\":2846:2876   */\n      gt\n        /* \"#utility.yul\":2843:2960   */\n      iszero\n      tag_92\n      jumpi\n        /* \"#utility.yul\":2879:2958   */\n      tag_93\n      tag_25\n      jump\t// in\n    tag_93:\n        /* \"#utility.yul\":2843:2960   */\n    tag_92:\n        /* \"#utility.yul\":2984:3047   */\n      tag_94\n        /* \"#utility.yul\":3039:3046   */\n      dup5\n        /* \"#utility.yul\":3030:3036   */\n      dup3\n        /* \"#utility.yul\":3019:3028   */\n      dup6\n        /* \"#utility.yul\":3015:3037   */\n      add\n        /* \"#utility.yul\":2984:3047   */\n      tag_35\n      jump\t// in\n    tag_94:\n        /* \"#utility.yul\":2974:3047   */\n      swap2\n      pop\n        /* \"#utility.yul\":2770:3057   */\n      pop\n        /* \"#utility.yul\":2555:3064   */\n      swap3\n      swap2\n      pop\n      pop\n      jump\t// out\n        /* \"#utility.yul\":3070:3169   */\n    tag_36:\n        /* \"#utility.yul\":3122:3128   */\n      0x00\n        /* \"#utility.yul\":3156:3161   */\n      dup2\n        /* \"#utility.yul\":3150:3162   */\n      mload\n        /* \"#utility.yul\":3140:3162   */\n      swap1\n      pop\n        /* \"#utility.yul\":3070:3169   */\n      swap2\n      swap1\n      pop\n      jump\t// out\n        /* \"#utility.yul\":3175:3344   */\n    tag_37:\n        /* \"#utility.yul\":3259:3270   */\n      0x00\n        /* \"#utility.yul\":3293:3299   */\n      dup3\n        /* \"#utility.yul\":3288:3291   */\n      dup3\n        /* \"#utility.yul\":3281:3300   */\n      mstore\n        /* \"#utility.yul\":3333:3337   */\n      0x20\n        /* \"#utility.yul\":3328:3331   */\n      dup3\n        /* \"#utility.yul\":3324:3338   */\n      add\n        /* \"#utility.yul\":3309:3338   */\n      swap1\n      pop\n        /* \"#utility.yul\":3175:3344   */\n      swap3\n      swap2\n      pop\n      pop\n      jump\t// out\n        /* \"#utility.yul\":3350:3489   */\n    tag_38:\n        /* \"#utility.yul\":3439:3445   */\n      dup3\n        /* \"#utility.yul\":3434:3437   */\n      dup2\n        /* \"#utility.yul\":3429:3432   */\n      dup4\n        /* \"#utility.yul\":3423:3446   */\n      mcopy\n        /* \"#utility.yul\":3480:3481   */\n      0x00\n        /* \"#utility.yul\":3471:3477   */\n      dup4\n        /* \"#utility.yul\":3466:3469   */\n      dup4\n        /* \"#utility.yul\":3462:3478   */\n      add\n        /* \"#utility.yul\":3455:3482   */\n      mstore\n        /* \"#utility.yul\":3350:3489   */\n      pop\n      pop\n      pop\n      jump\t// out\n        /* \"#utility.yul\":3495:3872   */\n    tag_39:\n        /* \"#utility.yul\":3583:3586   */\n      0x00\n        /* \"#utility.yul\":3611:3650   */\n      tag_99\n        /* \"#utility.yul\":3644:3649   */\n      dup3\n        /* \"#utility.yul\":3611:3650   */\n      tag_36\n      jump\t// in\n    tag_99:\n        /* \"#utility.yul\":3666:3737   */\n      tag_100\n        /* \"#utility.yul\":3730:3736   */\n      dup2\n        /* \"#utility.yul\":3725:3728   */\n      dup6\n        /* \"#utility.yul\":3666:3737   */\n      tag_37\n      jump\t// in\n    tag_100:\n        /* \"#utility.yul\":3659:3737   */\n      swap4\n      pop\n        /* \"#utility.yul\":3746:3811   */\n      tag_101\n        /* \"#utility.yul\":3804:3810   */\n      dup2\n        /* \"#utility.yul\":3799:3802   */\n      dup6\n        /* \"#utility.yul\":3792:3796   */\n      0x20\n        /* \"#utility.yul\":3785:3790   */\n      dup7\n        /* \"#utility.yul\":3781:3797   */\n      add\n        /* \"#utility.yul\":3746:3811   */\n      tag_38\n      jump\t// in\n    tag_101:\n        /* \"#utility.yul\":3836:3865   */\n      tag_102\n        /* \"#utility.yul\":3858:3864   */\n      dup2\n        /* \"#utility.yul\":3836:3865   */\n      tag_28\n      jump\t// in\n    tag_102:\n        /* \"#utility.yul\":3831:3834   */\n      dup5\n        /* \"#utility.yul\":3827:3866   */\n      add\n        /* \"#utility.yul\":3820:3866   */\n      swap2\n      pop\n        /* \"#utility.yul\":3587:3872   */\n      pop\n        /* \"#utility.yul\":3495:3872   */\n      swap3\n      swap2\n      pop\n      pop\n      jump\t// out\n        /* \"#utility.yul\":3878:4191   */\n    tag_12:\n        /* \"#utility.yul\":3991:3995   */\n      0x00\n        /* \"#utility.yul\":4029:4031   */\n      0x20\n        /* \"#utility.yul\":4018:4027   */\n      dup3\n        /* \"#utility.yul\":4014:4032   */\n      add\n        /* \"#utility.yul\":4006:4032   */\n      swap1\n      pop\n        /* \"#utility.yul\":4078:4087   */\n      dup2\n        /* \"#utility.yul\":4072:4076   */\n      dup2\n        /* \"#utility.yul\":4068:4088   */\n      sub\n        /* \"#utility.yul\":4064:4065   */\n      0x00\n        /* \"#utility.yul\":4053:4062   */\n      dup4\n        /* \"#utility.yul\":4049:4066   */\n      add\n        /* \"#utility.yul\":4042:4089   */\n      mstore\n        /* \"#utility.yul\":4106:4184   */\n      tag_104\n        /* \"#utility.yul\":4179:4183   */\n      dup2\n        /* \"#utility.yul\":4170:4176   */\n      dup5\n        /* \"#utility.yul\":4106:4184   */\n      tag_39\n      jump\t// in\n    tag_104:\n        /* \"#utility.yul\":4098:4184   */\n      swap1\n      pop\n        /* \"#utility.yul\":3878:4191   */\n      swap3\n      swap2\n      pop\n      pop\n      jump\t// out\n        /* \"#utility.yul\":4197:4377   */\n    tag_40:\n        /* \"#utility.yul\":4245:4322   */\n      0x4e487b7100000000000000000000000000000000000000000000000000000000\n        /* \"#utility.yul\":4242:4243   */\n      0x00\n        /* \"#utility.yul\":4235:4323   */\n      mstore\n        /* \"#utility.yul\":4342:4346   */\n      0x22\n        /* \"#utility.yul\":4339:4340   */\n      0x04\n        /* \"#utility.yul\":4332:4347   */\n      mstore\n        /* \"#utility.yul\":4366:4370   */\n      0x24\n        /* \"#utility.yul\":4363:4364   */\n      0x00\n        /* \"#utility.yul\":4356:4371   */\n      revert\n        /* \"#utility.yul\":4383:4703   */\n    tag_18:\n        /* \"#utility.yul\":4427:4433   */\n      0x00\n        /* \"#utility.yul\":4464:4465   */\n      0x02\n        /* \"#utility.yul\":4458:4462   */\n      dup3\n        /* \"#utility.yul\":4454:4466   */\n      div\n        /* \"#utility.yul\":4444:4466   */\n      swap1\n      pop\n        /* \"#utility.yul\":4511:4512   */\n      0x01\n        /* \"#utility.yul\":4505:4509   */\n      dup3\n        /* \"#utility.yul\":4501:4513   */\n      and\n        /* \"#utility.yul\":4532:4550   */\n      dup1\n        /* \"#utility.yul\":4522:4603   */\n      tag_107\n      jumpi\n        /* \"#utility.yul\":4588:4592   */\n      0x7f\n        /* \"#utility.yul\":4580:4586   */\n      dup3\n        /* \"#utility.yul\":4576:4593   */\n      and\n        /* \"#utility.yul\":4566:4593   */\n      swap2\n      pop\n        /* \"#utility.yul\":4522:4603   */\n    tag_107:\n        /* \"#utility.yul\":4650:4652   */\n      0x20\n        /* \"#utility.yul\":4642:4648   */\n      dup3\n        /* \"#utility.yul\":4639:4653   */\n      lt\n        /* \"#utility.yul\":4619:4637   */\n      dup2\n        /* \"#utility.yul\":4616:4654   */\n      sub\n        /* \"#utility.yul\":4613:4697   */\n      tag_108\n      jumpi\n        /* \"#utility.yul\":4669:4687   */\n      tag_109\n      tag_40\n      jump\t// in\n    tag_109:\n        /* \"#utility.yul\":4613:4697   */\n    tag_108:\n        /* \"#utility.yul\":4434:4703   */\n      pop\n        /* \"#utility.yul\":4383:4703   */\n      swap2\n      swap1\n      pop\n      jump\t// out\n        /* \"#utility.yul\":4709:4862   */\n    tag_41:\n        /* \"#utility.yul\":4762:4768   */\n      0x00\n        /* \"#utility.yul\":4796:4801   */\n      dup2\n        /* \"#utility.yul\":4790:4802   */\n      sload\n        /* \"#utility.yul\":4780:4802   */\n      swap1\n      pop\n        /* \"#utility.yul\":4822:4855   */\n      tag_111\n        /* \"#utility.yul\":4848:4854   */\n      dup2\n        /* \"#utility.yul\":4822:4855   */\n      tag_18\n      jump\t// in\n    tag_111:\n        /* \"#utility.yul\":4812:4855   */\n      swap1\n      pop\n        /* \"#utility.yul\":4709:4862   */\n      swap2\n      swap1\n      pop\n      jump\t// out\n        /* \"#utility.yul\":4868:5009   */\n    tag_42:\n        /* \"#utility.yul\":4917:4921   */\n      0x00\n        /* \"#utility.yul\":4940:4943   */\n      dup2\n        /* \"#utility.yul\":4932:4943   */\n      swap1\n      pop\n        /* \"#utility.yul\":4963:4966   */\n      dup2\n        /* \"#utility.yul\":4960:4961   */\n      0x00\n        /* \"#utility.yul\":4953:4967   */\n      mstore\n        /* \"#utility.yul\":4997:5001   */\n      0x20\n        /* \"#utility.yul\":4994:4995   */\n      0x00\n        /* \"#utility.yul\":4984:5002   */\n      keccak256\n        /* \"#utility.yul\":4976:5002   */\n      swap1\n      pop\n        /* \"#utility.yul\":4868:5009   */\n      swap2\n      swap1\n      pop\n      jump\t// out\n        /* \"#utility.yul\":5015:5160   */\n    tag_43:\n        /* \"#utility.yul\":5068:5072   */\n      0x00\n        /* \"#utility.yul\":5091:5094   */\n      dup2\n        /* \"#utility.yul\":5083:5094   */\n      swap1\n      pop\n        /* \"#utility.yul\":5114:5117   */\n      dup2\n        /* \"#utility.yul\":5111:5112   */\n      0x00\n        /* \"#utility.yul\":5104:5118   */\n      mstore\n        /* \"#utility.yul\":5148:5152   */\n      0x20\n        /* \"#utility.yul\":5145:5146   */\n      0x00\n        /* \"#utility.yul\":5135:5153   */\n      keccak256\n        /* \"#utility.yul\":5127:5153   */\n      swap1\n      pop\n        /* \"#utility.yul\":5015:5160   */\n      swap2\n      swap1\n      pop\n      jump\t// out\n        /* \"#utility.yul\":5166:5259   */\n    tag_44:\n        /* \"#utility.yul\":5203:5209   */\n      0x00\n        /* \"#utility.yul\":5250:5252   */\n      0x20\n        /* \"#utility.yul\":5245:5247   */\n      0x1f\n        /* \"#utility.yul\":5238:5243   */\n      dup4\n        /* \"#utility.yul\":5234:5248   */\n      add\n        /* \"#utility.yul\":5230:5253   */\n      div\n        /* \"#utility.yul\":5220:5253   */\n      swap1\n      pop\n        /* \"#utility.yul\":5166:5259   */\n      swap2\n      swap1\n      pop\n      jump\t// out\n        /* \"#utility.yul\":5265:5372   */\n    tag_45:\n        /* \"#utility.yul\":5309:5317   */\n      0x00\n        /* \"#utility.yul\":5359:5364   */\n      dup3\n        /* \"#utility.yul\":5353:5357   */\n      dup3\n        /* \"#utility.yul\":5349:5365   */\n      shl\n        /* \"#utility.yul\":5328:5365   */\n      swap1\n      pop\n        /* \"#utility.yul\":5265:5372   */\n      swap3\n      swap2\n      pop\n      pop\n      jump\t// out\n        /* \"#utility.yul\":5378:5771   */\n    tag_46:\n        /* \"#utility.yul\":5447:5453   */\n      0x00\n        /* \"#utility.yul\":5497:5498   */\n      0x08\n        /* \"#utility.yul\":5485:5495   */\n      dup4\n        /* \"#utility.yul\":5481:5499   */\n      mul\n        /* \"#utility.yul\":5520:5617   */\n      tag_117\n        /* \"#utility.yul\":5550:5616   */\n      0xffffffffffffffffffffffffffffffffffffffffffffffffffffffffffffffff\n        /* \"#utility.yul\":5539:5548   */\n      dup3\n        /* \"#utility.yul\":5520:5617   */\n      tag_45\n      jump\t// in\n    tag_117:\n        /* \"#utility.yul\":5638:5677   */\n      tag_118\n        /* \"#utility.yul\":5668:5676   */\n      dup7\n        /* \"#utility.yul\":5657:5666   */\n      dup4\n        /* \"#utility.yul\":5638:5677   */\n      tag_45\n      jump\t// in\n    tag_118:\n        /* \"#utility.yul\":5626:5677   */\n      swap6\n      pop\n        /* \"#utility.yul\":5710:5714   */\n      dup1\n        /* \"#utility.yul\":5706:5715   */\n      not\n        /* \"#utility.yul\":5699:5704   */\n      dup5\n        /* \"#utility.yul\":5695:5716   */\n      and\n        /* \"#utility.yul\":5686:5716   */\n      swap4\n      pop\n        /* \"#utility.yul\":5759:5763   */\n      dup1\n        /* \"#utility.yul\":5749:5757   */\n      dup7\n        /* \"#utility.yul\":5745:5764   */\n      and\n        /* \"#utility.yul\":5738:5743   */\n      dup5\n        /* \"#utility.yul\":5735:5765   */\n      or\n        /* \"#utility.yul\":5725:5765   */\n      swap3\n      pop\n        /* \"#utility.yul\":5454:5771   */\n      pop\n      pop\n        /* \"#utility.yul\":5378:5771   */\n      swap4\n      swap3\n      pop\n      pop\n      pop\n      jump\t// out\n        /* \"#utility.yul\":5777:5854   */\n    tag_47:\n        /* \"#utility.yul\":5814:5821   */\n      0x00\n        /* \"#utility.yul\":5843:5848   */\n      dup2\n        /* \"#utility.yul\":5832:5848   */\n      swap1\n      pop\n        /* \"#utility.yul\":5777:5854   */\n      swap2\n      swap1\n      pop\n      jump\t// out\n        /* \"#utility.yul\":5860:5920   */\n    tag_48:\n        /* \"#utility.yul\":5888:5891   */\n      0x00\n        /* \"#utility.yul\":5909:5914   */\n      dup2\n        /* \"#utility.yul\":5902:5914   */\n      swap1\n      pop\n        /* \"#utility.yul\":5860:5920   */\n      swap2\n      swap1\n      pop\n      jump\t// out\n        /* \"#utility.yul\":5926:6068   */\n    tag_49:\n        /* \"#utility.yul\":5976:5985   */\n      0x00\n        /* \"#utility.yul\":6009:6062   */\n      tag_122\n        /* \"#utility.yul\":6027:6061   */\n      tag_123\n        /* \"#utility.yul\":6036:6060   */\n      tag_124\n        /* \"#utility.yul\":6054:6059   */\n      dup5\n        /* \"#utility.yul\":6036:6060   */\n      tag_47\n      jump\t// in\n    tag_124:\n        /* \"#utility.yul\":6027:6061   */\n      tag_48\n      jump\t// in\n    tag_123:\n        /* \"#utility.yul\":6009:6062   */\n      tag_47\n      jump\t// in\n    tag_122:\n        /* \"#utility.yul\":5996:6062   */\n      swap1\n      pop\n        /* \"#utility.yul\":5926:6068   */\n      swap2\n      swap1\n      pop\n      jump\t// out\n        /* \"#utility.yul\":6074:6149   */\n    tag_50:\n        /* \"#utility.yul\":6117:6120   */\n      0x00\n        /* \"#utility.yul\":6138:6143   */\n      dup2\n        /* \"#utility.yul\":6131:6143   */\n      swap1\n      pop\n        /* \"#utility.yul\":6074:6149   */\n      swap2\n      swap1\n      pop\n      jump\t// out\n        /* \"#utility.yul\":6155:6424   */\n    tag_51:\n        /* \"#utility.yul\":6265:6304   */\n      tag_127\n        /* \"#utility.yul\":6296:6303   */\n      dup4\n        /* \"#utility.yul\":6265:6304   */\n      tag_49\n      jump\t// in\n    tag_127:\n        /* \"#utility.yul\":6326:6417   */\n      tag_128\n        /* \"#utility.yul\":6375:6416   */\n      tag_129\n        /* \"#utility.yul\":6399:6415   */\n      dup3\n        /* \"#utility.yul\":6375:6416   */\n      tag_50\n      jump\t// in\n    tag_129:\n        /* \"#utility.yul\":6367:6373   */\n      dup5\n        /* \"#utility.yul\":6360:6364   */\n      dup5\n        /* \"#utility.yul\":6354:6365   */\n      sload\n        /* \"#utility.yul\":6326:6417   */\n      tag_46\n      jump\t// in\n    tag_128:\n        /* \"#utility.yul\":6320:6324   */\n      dup3\n        /* \"#utility.yul\":6313:6418   */\n      sstore\n        /* \"#utility.yul\":6231:6424   */\n      pop\n        /* \"#utility.yul\":6155:6424   */\n      pop\n      pop\n      pop\n      jump\t// out\n        /* \"#utility.yul\":6430:6503   */\n    tag_52:\n        /* \"#utility.yul\":6475:6478   */\n      0x00\n        /* \"#utility.yul\":6496:6497   */\n      0x00\n        /* \"#utility.yul\":6489:6497   */\n      swap1\n      pop\n        /* \"#utility.yul\":6430:6503   */\n      swap1\n      jump\t// out\n        /* \"#utility.yul\":6509:6698   */\n    tag_53:\n        /* \"#utility.yul\":6586:6618   */\n      tag_132\n      tag_52\n      jump\t// in\n    tag_132:\n        /* \"#utility.yul\":6627:6692   */\n      tag_133\n        /* \"#utility.yul\":6685:6691   */\n      dup2\n        /* \"#utility.yul\":6677:6683   */\n      dup5\n        /* \"#utility.yul\":6671:6675   */\n      dup5\n        /* \"#utility.yul\":6627:6692   */\n      tag_51\n      jump\t// in\n    tag_133:\n        /* \"#utility.yul\":6562:6698   */\n      pop\n        /* \"#utility.yul\":6509:6698   */\n      pop\n      pop\n      jump\t// out\n        /* \"#utility.yul\":6704:6890   */\n    tag_54:\n        /* \"#utility.yul\":6764:6884   */\n    tag_135:\n        /* \"#utility.yul\":6781:6784   */\n      dup2\n        /* \"#utility.yul\":6774:6779   */\n      dup2\n        /* \"#utility.yul\":6771:6785   */\n      lt\n        /* \"#utility.yul\":6764:6884   */\n      iszero\n      tag_137\n      jumpi\n        /* \"#utility.yul\":6835:6874   */\n      tag_138\n        /* \"#utility.yul\":6872:6873   */\n      0x00\n        /* \"#utility.yul\":6865:6870   */\n      dup3\n        /* \"#utility.yul\":6835:6874   */\n      tag_53\n      jump\t// in\n    tag_138:\n        /* \"#utility.yul\":6808:6809   */\n      0x01\n        /* \"#utility.yul\":6801:6806   */\n      dup2\n        /* \"#utility.yul\":6797:6810   */\n      add\n        /* \"#utility.yul\":6788:6810   */\n      swap1\n      pop\n        /* \"#utility.yul\":6764:6884   */\n      jump(tag_135)\n    tag_137:\n        /* \"#utility.yul\":6704:6890   */\n      pop\n      pop\n      jump\t// out\n        /* \"#utility.yul\":6896:7439   */\n    tag_55:\n        /* \"#utility.yul\":6997:6999   */\n      0x1f\n        /* \"#utility.yul\":6992:6995   */\n      dup3\n        /* \"#utility.yul\":6989:7000   */\n      gt\n        /* \"#utility.yul\":6986:7432   */\n      iszero\n      tag_140\n      jumpi\n        /* \"#utility.yul\":7031:7069   */\n      tag_141\n        /* \"#utility.yul\":7063:7068   */\n      dup2\n        /* \"#utility.yul\":7031:7069   */\n      tag_42\n      jump\t// in\n    tag_141:\n        /* \"#utility.yul\":7115:7144   */\n      tag_142\n        /* \"#utility.yul\":7133:7143   */\n      dup5\n        /* \"#utility.yul\":7115:7144   */\n      tag_44\n      jump\t// in\n    tag_142:\n        /* \"#utility.yul\":7105:7113   */\n      dup2\n        /* \"#utility.yul\":7101:7145   */\n      add\n        /* \"#utility.yul\":7298:7300   */\n      0x20\n        /* \"#utility.yul\":7286:7296   */\n      dup6\n        /* \"#utility.yul\":7283:7301   */\n      lt\n        /* \"#utility.yul\":7280:7329   */\n      iszero\n      tag_143\n      jumpi\n        /* \"#utility.yul\":7319:7327   */\n      dup2\n        /* \"#utility.yul\":7304:7327   */\n      swap1\n      pop\n        /* \"#utility.yul\":7280:7329   */\n    tag_143:\n        /* \"#utility.yul\":7342:7422   */\n      tag_144\n        /* \"#utility.yul\":7398:7420   */\n      tag_145\n        /* \"#utility.yul\":7416:7419   */\n      dup6\n        /* \"#utility.yul\":7398:7420   */\n      tag_44\n      jump\t// in\n    tag_145:\n        /* \"#utility.yul\":7388:7396   */\n      dup4\n        /* \"#utility.yul\":7384:7421   */\n      add\n        /* \"#utility.yul\":7371:7382   */\n      dup3\n        /* \"#utility.yul\":7342:7422   */\n      tag_54\n      jump\t// in\n    tag_144:\n        /* \"#utility.yul\":7001:7432   */\n      pop\n      pop\n        /* \"#utility.yul\":6986:7432   */\n    tag_140:\n        /* \"#utility.yul\":6896:7439   */\n      pop\n      pop\n      pop\n      jump\t// out\n        /* \"#utility.yul\":7445:7562   */\n    tag_56:\n        /* \"#utility.yul\":7499:7507   */\n      0x00\n        /* \"#utility.yul\":7549:7554   */\n      dup3\n        /* \"#utility.yul\":7543:7547   */\n      dup3\n        /* \"#utility.yul\":7539:7555   */\n      shr\n        /* \"#utility.yul\":7518:7555   */\n      swap1\n      pop\n        /* \"#utility.yul\":7445:7562   */\n      swap3\n      swap2\n      pop\n      pop\n      jump\t// out\n        /* \"#utility.yul\":7568:7737   */\n    tag_57:\n        /* \"#utility.yul\":7612:7618   */\n      0x00\n        /* \"#utility.yul\":7645:7696   */\n      tag_148\n        /* \"#utility.yul\":7693:7694   */\n      0x00\n        /* \"#utility.yul\":7689:7695   */\n      not\n        /* \"#utility.yul\":7681:7686   */\n      dup5\n        /* \"#utility.yul\":7678:7679   */\n      0x08\n        /* \"#utility.yul\":7674:7687   */\n      mul\n        /* \"#utility.yul\":7645:7696   */\n      tag_56\n      jump\t// in\n    tag_148:\n        /* \"#utility.yul\":7641:7697   */\n      not\n        /* \"#utility.yul\":7726:7730   */\n      dup1\n        /* \"#utility.yul\":7720:7724   */\n      dup4\n        /* \"#utility.yul\":7716:7731   */\n      and\n        /* \"#utility.yul\":7706:7731   */\n      swap2\n      pop\n        /* \"#utility.yul\":7619:7737   */\n      pop\n        /* \"#utility.yul\":7568:7737   */\n      swap3\n      swap2\n      pop\n      pop\n      jump\t// out\n        /* \"#utility.yul\":7742:8037   */\n    tag_58:\n        /* \"#utility.yul\":7818:7822   */\n      0x00\n        /* \"#utility.yul\":7964:7993   */\n      tag_150\n        /* \"#utility.yul\":7989:7992   */\n      dup4\n        /* \"#utility.yul\":7983:7987   */\n      dup4\n        /* \"#utility.yul\":7964:7993   */\n      tag_57\n      jump\t// in\n    tag_150:\n        /* \"#utility.yul\":7956:7993   */\n      swap2\n      pop\n        /* \"#utility.yul\":8026:8029   */\n      dup3\n        /* \"#utility.yul\":8023:8024   */\n      0x02\n        /* \"#utility.yul\":8019:8030   */\n      mul\n        /* \"#utility.yul\":8013:8017   */\n      dup3\n        /* \"#utility.yul\":8010:8031   */\n      or\n        /* \"#utility.yul\":8002:8031   */\n      swap1\n      pop\n        /* \"#utility.yul\":7742:8037   */\n      swap3\n      swap2\n      pop\n      pop\n      jump\t// out\n        /* \"#utility.yul\":8042:9505   */\n    tag_15:\n        /* \"#utility.yul\":8157:8160   */\n      dup2\n        /* \"#utility.yul\":8151:8155   */\n      dup2\n        /* \"#utility.yul\":8148:8161   */\n      sub\n        /* \"#utility.yul\":8145:8171   */\n      tag_152\n      jumpi\n        /* \"#utility.yul\":8164:8169   */\n      pop\n      pop\n      jump(tag_151)\n        /* \"#utility.yul\":8145:8171   */\n    tag_152:\n        /* \"#utility.yul\":8195:8233   */\n      tag_153\n        /* \"#utility.yul\":8229:8232   */\n      dup3\n        /* \"#utility.yul\":8195:8233   */\n      tag_41\n      jump\t// in\n    tag_153:\n        /* \"#utility.yul\":8298:8316   */\n      0xffffffffffffffff\n        /* \"#utility.yul\":8290:8296   */\n      dup2\n        /* \"#utility.yul\":8287:8317   */\n      gt\n        /* \"#utility.yul\":8284:8340   */\n      iszero\n      tag_154\n      jumpi\n        /* \"#utility.yul\":8320:8338   */\n      tag_155\n      tag_29\n      jump\t// in\n    tag_155:\n        /* \"#utility.yul\":8284:8340   */\n    tag_154:\n        /* \"#utility.yul\":8364:8402   */\n      tag_156\n        /* \"#utility.yul\":8396:8400   */\n      dup3\n        /* \"#utility.yul\":8390:8401   */\n      sload\n        /* \"#utility.yul\":8364:8402   */\n      tag_18\n      jump\t// in\n    tag_156:\n        /* \"#utility.yul\":8449:8516   */\n      tag_157\n        /* \"#utility.yul\":8509:8515   */\n      dup3\n        /* \"#utility.yul\":8501:8507   */\n      dup3\n        /* \"#utility.yul\":8495:8499   */\n      dup6\n        /* \"#utility.yul\":8449:8516   */\n      tag_55\n      jump\t// in\n    tag_157:\n        /* \"#utility.yul\":8543:8544   */\n      0x00\n        /* \"#utility.yul\":8572:8574   */\n      0x1f\n        /* \"#utility.yul\":8564:8570   */\n      dup4\n        /* \"#utility.yul\":8561:8575   */\n      gt\n        /* \"#utility.yul\":8589:8590   */\n      0x01\n        /* \"#utility.yul\":8584:9260   */\n      dup2\n      eq\n      tag_159\n      jumpi\n        /* \"#utility.yul\":9304:9305   */\n      0x00\n        /* \"#utility.yul\":9321:9327   */\n      dup5\n        /* \"#utility.yul\":9318:9395   */\n      iszero\n      tag_160\n      jumpi\n        /* \"#utility.yul\":9370:9379   */\n      dup3\n        /* \"#utility.yul\":9365:9368   */\n      dup8\n        /* \"#utility.yul\":9361:9380   */\n      add\n        /* \"#utility.yul\":9355:9381   */\n      sload\n        /* \"#utility.yul\":9346:9381   */\n      swap1\n      pop\n        /* \"#utility.yul\":9318:9395   */\n    tag_160:\n        /* \"#utility.yul\":9421:9488   */\n      tag_161\n        /* \"#utility.yul\":9481:9487   */\n      dup6\n        /* \"#utility.yul\":9474:9479   */\n      dup3\n        /* \"#utility.yul\":9421:9488   */\n      tag_58\n      jump\t// in\n    tag_161:\n        /* \"#utility.yul\":9415:9419   */\n      dup7\n        /* \"#utility.yul\":9408:9489   */\n      sstore\n        /* \"#utility.yul\":9277:9499   */\n      pop\n        /* \"#utility.yul\":8554:9499   */\n      jump(tag_158)\n        /* \"#utility.yul\":8584:9260   */\n    tag_159:\n        /* \"#utility.yul\":8636:8640   */\n      0x1f\n        /* \"#utility.yul\":8632:8641   */\n      not\n        /* \"#utility.yul\":8624:8630   */\n      dup5\n        /* \"#utility.yul\":8620:8642   */\n      and\n        /* \"#utility.yul\":8662:8702   */\n      tag_162\n        /* \"#utility.yul\":8698:8701   */\n      dup8\n        /* \"#utility.yul\":8662:8702   */\n      tag_43\n      jump\t// in\n    tag_162:\n        /* \"#utility.yul\":8655:8702   */\n      swap7\n      pop\n        /* \"#utility.yul\":8729:8766   */\n      tag_163\n        /* \"#utility.yul\":8761:8765   */\n      dup7\n        /* \"#utility.yul\":8729:8766   */\n      tag_42\n      jump\t// in\n    tag_163:\n        /* \"#utility.yul\":8788:8789   */\n      0x00\n        /* \"#utility.yul\":8802:9009   */\n    tag_164:\n        /* \"#utility.yul\":8816:8823   */\n      dup3\n        /* \"#utility.yul\":8813:8814   */\n      dup2\n        /* \"#utility.yul\":8810:8824   */\n      lt\n        /* \"#utility.yul\":8802:9009   */\n      iszero\n      tag_166\n      jumpi\n        /* \"#utility.yul\":8895:8904   */\n      dup5\n        /* \"#utility.yul\":8890:8893   */\n      dup10\n        /* \"#utility.yul\":8886:8905   */\n      add\n        /* \"#utility.yul\":8880:8906   */\n      sload\n        /* \"#utility.yul\":8872:8878   */\n      dup3\n        /* \"#utility.yul\":8865:8907   */\n      sstore\n        /* \"#utility.yul\":8946:8947   */\n      0x01\n        /* \"#utility.yul\":8938:8944   */\n      dup3\n        /* \"#utility.yul\":8934:8948   */\n      add\n        /* \"#utility.yul\":8924:8948   */\n      swap2\n      pop\n        /* \"#utility.yul\":8993:8994   */\n      0x01\n        /* \"#utility.yul\":8982:8991   */\n      dup6\n        /* \"#utility.yul\":8978:8995   */\n      add\n        /* \"#utility.yul\":8965:8995   */\n      swap5\n      pop\n        /* \"#utility.yul\":8839:8843   */\n      0x20\n        /* \"#utility.yul\":8836:8837   */\n      dup2\n        /* \"#utility.yul\":8832:8844   */\n      add\n        /* \"#utility.yul\":8827:8844   */\n      swap1\n      pop\n        /* \"#utility.yul\":8802:9009   */\n      jump(tag_164)\n    tag_166:\n        /* \"#utility.yul\":9037:9043   */\n      dup7\n        /* \"#utility.yul\":9028:9035   */\n      dup4\n        /* \"#utility.yul\":9025:9044   */\n      lt\n        /* \"#utility.yul\":9022:9201   */\n      iszero\n      tag_167\n      jumpi\n        /* \"#utility.yul\":9095:9104   */\n      dup5\n        /* \"#utility.yul\":9090:9093   */\n      dup10\n        /* \"#utility.yul\":9086:9105   */\n      add\n        /* \"#utility.yul\":9080:9106   */\n      sload\n        /* \"#utility.yul\":9138:9186   */\n      tag_168\n        /* \"#utility.yul\":9180:9184   */\n      0x1f\n        /* \"#utility.yul\":9172:9178   */\n      dup10\n        /* \"#utility.yul\":9168:9185   */\n      and\n        /* \"#utility.yul\":9157:9166   */\n      dup3\n        /* \"#utility.yul\":9138:9186   */\n      tag_57\n      jump\t// in\n    tag_168:\n        /* \"#utility.yul\":9130:9136   */\n      dup4\n        /* \"#utility.yul\":9123:9187   */\n      sstore\n        /* \"#utility.yul\":9045:9201   */\n      pop\n        /* \"#utility.yul\":9022:9201   */\n    tag_167:\n        /* \"#utility.yul\":9247:9248   */\n      0x01\n        /* \"#utility.yul\":9243:9244   */\n      0x02\n        /* \"#utility.yul\":9235:9241   */\n      dup9\n        /* \"#utility.yul\":9231:9245   */\n      mul\n        /* \"#utility.yul\":9227:9249   */\n      add\n        /* \"#utility.yul\":9221:9225   */\n      dup9\n        /* \"#utility.yul\":9214:9250   */\n      sstore\n        /* \"#utility.yul\":8591:9260   */\n      pop\n      pop\n      pop\n        /* \"#utility.yul\":8554:9499   */\n    tag_158:\n      pop\n        /* \"#utility.yul\":8135:9505   */\n      pop\n      pop\n      pop\n        /* \"#utility.yul\":8042:9505   */\n      pop\n      pop\n    tag_151:\n      jump\t// out\n\n    auxdata: 0xa26469706673582212208c1343cf36f5e5b6b7f9db4ded1a7205424ed15cb2c4a37a2aab161a4069462a64736f6c634300081d0033\n}\n",
				"bytecode": {
					"linkReferences": {},
					"object": "6080604052348015600e575f5ffd5b5061066f8061001c5f395ff3fe608060405234801561000f575f5ffd5b5060043610610034575f3560e01c8063131a0680146100385780632e64cec114610054575b5f5ffd5b610052600480360381019061004d9190610260565b610072565b005b61005c610084565b6040516100699190610307565b60405180910390f35b5f5f90816100809190610554565b5050565b60605f805461009290610354565b80601f01602080910402602001604051908101604052809291908181526020018280546100be90610354565b80156101095780601f106100e057610100808354040283529160200191610109565b820191905f5260205f20905b8154815290600101906020018083116100ec57829003601f168201915b5050505050905090565b5f604051905090565b5f5ffd5b5f5ffd5b5f5ffd5b5f5ffd5b5f601f19601f8301169050919050565b7f4e487b71000000000000000000000000000000000000000000000000000000005f52604160045260245ffd5b6101728261012c565b810181811067ffffffffffffffff821117156101915761019061013c565b5b80604052505050565b5f6101a3610113565b90506101af8282610169565b919050565b5f67ffffffffffffffff8211156101ce576101cd61013c565b5b6101d78261012c565b9050602081019050919050565b828183375f83830152505050565b5f6102046101ff846101b4565b61019a565b9050828152602081018484840111156102205761021f610128565b5b61022b8482856101e4565b509392505050565b5f82601f83011261024757610246610124565b5b81356102578482602086016101f2565b91505092915050565b5f602082840312156102755761027461011c565b5b5f82013567ffffffffffffffff81111561029257610291610120565b5b61029e84828501610233565b91505092915050565b5f81519050919050565b5f82825260208201905092915050565b8281835e5f83830152505050565b5f6102d9826102a7565b6102e381856102b1565b93506102f38185602086016102c1565b6102fc8161012c565b840191505092915050565b5f6020820190508181035f83015261031f81846102cf565b905092915050565b7f4e487b71000000000000000000000000000000000000000000000000000000005f52602260045260245ffd5b5f600282049050600182168061036b57607f821691505b60208210810361037e5761037d610327565b5b50919050565b5f8154905061039281610354565b9050919050565b5f819050815f5260205f209050919050565b5f819050815f5260205f209050919050565b5f6020601f8301049050919050565b5f82821b905092915050565b5f600883026104077fffffffffffffffffffffffffffffffffffffffffffffffffffffffffffffffff826103cc565b61041186836103cc565b95508019841693508086168417925050509392505050565b5f819050919050565b5f819050919050565b5f61045561045061044b84610429565b610432565b610429565b9050919050565b5f819050919050565b61046e8361043b565b61048261047a8261045c565b8484546103d8565b825550505050565b5f5f905090565b61049961048a565b6104a4818484610465565b505050565b5b818110156104c7576104bc5f82610491565b6001810190506104aa565b5050565b601f82111561050c576104dd81610399565b6104e6846103bd565b810160208510156104f5578190505b610509610501856103bd565b8301826104a9565b50505b505050565b5f82821c905092915050565b5f61052c5f1984600802610511565b1980831691505092915050565b5f610544838361051d565b9150826002028217905092915050565b818103610562575050610637565b61056b82610384565b67ffffffffffffffff8111156105845761058361013c565b5b61058e8254610354565b6105998282856104cb565b5f601f8311600181146105c6575f84156105b4578287015490505b6105be8582610539565b865550610630565b601f1984166105d4876103ab565b96506105df86610399565b5f5b82811015610606578489015482556001820191506001850194506020810190506105e1565b86831015610623578489015461061f601f89168261051d565b8355505b6001600288020188555050505b5050505050505b56fea26469706673582212208c1343cf36f5e5b6b7f9db4ded1a7205424ed15cb2c4a37a2aab161a4069462a64736f6c634300081d0033",
					"opcodes": "PUSH1 0x80 PUSH1 0x40 MSTORE CALLVALUE DUP1 ISZERO PUSH1 0xE JUMPI PUSH0 PUSH0 REVERT JUMPDEST POP PUSH2 0x66F DUP1 PUSH2 0x1C PUSH0 CODECOPY PUSH0 RETURN INVALID PUSH1 0x80 PUSH1 0x40 MSTORE CALLVALUE DUP1 ISZERO PUSH2 0xF JUMPI PUSH0 PUSH0 REVERT JUMPDEST POP PUSH1 0x4 CALLDATASIZE LT PUSH2 0x34 JUMPI PUSH0 CALLDATALOAD PUSH1 0xE0 SHR DUP1 PUSH4 0x131A0680 EQ PUSH2 0x38 JUMPI DUP1 PUSH4 0x2E64CEC1 EQ PUSH2 0x54 JUMPI JUMPDEST PUSH0 PUSH0 REVERT JUMPDEST PUSH2 0x52 PUSH1 0x4 DUP1 CALLDATASIZE SUB DUP2 ADD SWAP1 PUSH2 0x4D SWAP2 SWAP1 PUSH2 0x260 JUMP JUMPDEST PUSH2 0x72 JUMP JUMPDEST STOP JUMPDEST PUSH2 0x5C PUSH2 0x84 JUMP JUMPDEST PUSH1 0x40 MLOAD PUSH2 0x69 SWAP2 SWAP1 PUSH2 0x307 JUMP JUMPDEST PUSH1 0x40 MLOAD DUP1 SWAP2 SUB SWAP1 RETURN JUMPDEST PUSH0 PUSH0 SWAP1 DUP2 PUSH2 0x80 SWAP2 SWAP1 PUSH2 0x554 JUMP JUMPDEST POP POP JUMP JUMPDEST PUSH1 0x60 PUSH0 DUP1 SLOAD PUSH2 0x92 SWAP1 PUSH2 0x354 JUMP JUMPDEST DUP1 PUSH1 0x1F ADD PUSH1 0x20 DUP1 SWAP2 DIV MUL PUSH1 0x20 ADD PUSH1 0x40 MLOAD SWAP1 DUP2 ADD PUSH1 0x40 MSTORE DUP1 SWAP3 SWAP2 SWAP1 DUP2 DUP2 MSTORE PUSH1 0x20 ADD DUP3 DUP1 SLOAD PUSH2 0xBE SWAP1 PUSH2 0x354 JUMP JUMPDEST DUP1 ISZERO PUSH2 0x109 JUMPI DUP1 PUSH1 0x1F LT PUSH2 0xE0 JUMPI PUSH2 0x100 DUP1 DUP4 SLOAD DIV MUL DUP4 MSTORE SWAP2 PUSH1 0x20 ADD SWAP2 PUSH2 0x109 JUMP JUMPDEST DUP3 ADD SWAP2 SWAP1 PUSH0 MSTORE PUSH1 0x20 PUSH0 KECCAK256 SWAP1 JUMPDEST DUP2 SLOAD DUP2 MSTORE SWAP1 PUSH1 0x1 ADD SWAP1 PUSH1 0x20 ADD DUP1 DUP4 GT PUSH2 0xEC JUMPI DUP3 SWAP1 SUB PUSH1 0x1F AND DUP3 ADD SWAP2 JUMPDEST POP POP POP POP POP SWAP1 POP SWAP1 JUMP JUMPDEST PUSH0 PUSH1 0x40 MLOAD SWAP1 POP SWAP1 JUMP JUMPDEST PUSH0 PUSH0 REVERT JUMPDEST PUSH0 PUSH0 REVERT JUMPDEST PUSH0 PUSH0 REVERT JUMPDEST PUSH0 PUSH0 REVERT JUMPDEST PUSH0 PUSH1 0x1F NOT PUSH1 0x1F DUP4 ADD AND SWAP1 POP SWAP2 SWAP1 POP JUMP JUMPDEST PUSH32 0x4E487B7100000000000000000000000000000000000000000000000000000000 PUSH0 MSTORE PUSH1 0x41 PUSH1 0x4 MSTORE PUSH1 0x24 PUSH0 REVERT JUMPDEST PUSH2 0x172 DUP3 PUSH2 0x12C JUMP JUMPDEST DUP2 ADD DUP2 DUP2 LT PUSH8 0xFFFFFFFFFFFFFFFF DUP3 GT OR ISZERO PUSH2 0x191 JUMPI PUSH2 0x190 PUSH2 0x13C JUMP JUMPDEST JUMPDEST DUP1 PUSH1 0x40 MSTORE POP POP POP JUMP JUMPDEST PUSH0 PUSH2 0x1A3 PUSH2 0x113 JUMP JUMPDEST SWAP1 POP PUSH2 0x1AF DUP3 DUP3 PUSH2 0x169 JUMP JUMPDEST SWAP2 SWAP1 POP JUMP JUMPDEST PUSH0 PUSH8 0xFFFFFFFFFFFFFFFF DUP3 GT ISZERO PUSH2 0x1CE JUMPI PUSH2 0x1CD PUSH2 0x13C JUMP JUMPDEST JUMPDEST PUSH2 0x1D7 DUP3 PUSH2 0x12C JUMP JUMPDEST SWAP1 POP PUSH1 0x20 DUP2 ADD SWAP1 POP SWAP2 SWAP1 POP JUMP JUMPDEST DUP3 DUP2 DUP4 CALLDATACOPY PUSH0 DUP4 DUP4 ADD MSTORE POP POP POP JUMP JUMPDEST PUSH0 PUSH2 0x204 PUSH2 0x1FF DUP5 PUSH2 0x1B4 JUMP JUMPDEST PUSH2 0x19A JUMP JUMPDEST SWAP1 POP DUP3 DUP2 MSTORE PUSH1 0x20 DUP2 ADD DUP5 DUP5 DUP5 ADD GT ISZERO PUSH2 0x220 JUMPI PUSH2 0x21F PUSH2 0x128 JUMP JUMPDEST JUMPDEST PUSH2 0x22B DUP5 DUP3 DUP6 PUSH2 0x1E4 JUMP JUMPDEST POP SWAP4 SWAP3 POP POP POP JUMP JUMPDEST PUSH0 DUP3 PUSH1 0x1F DUP4 ADD SLT PUSH2 0x247 JUMPI PUSH2 0x246 PUSH2 0x124 JUMP JUMPDEST JUMPDEST DUP2 CALLDATALOAD PUSH2 0x257 DUP5 DUP3 PUSH1 0x20 DUP7 ADD PUSH2 0x1F2 JUMP JUMPDEST SWAP2 POP POP SWAP3 SWAP2 POP POP JUMP JUMPDEST PUSH0 PUSH1 0x20 DUP3 DUP5 SUB SLT ISZERO PUSH2 0x275 JUMPI PUSH2 0x274 PUSH2 0x11C JUMP JUMPDEST JUMPDEST PUSH0 DUP3 ADD CALLDATALOAD PUSH8 0xFFFFFFFFFFFFFFFF DUP2 GT ISZERO PUSH2 0x292 JUMPI PUSH2 0x291 PUSH2 0x120 JUMP JUMPDEST JUMPDEST PUSH2 0x29E DUP5 DUP3 DUP6 ADD PUSH2 0x233 JUMP JUMPDEST SWAP2 POP POP SWAP3 SWAP2 POP POP JUMP JUMPDEST PUSH0 DUP2 MLOAD SWAP1 POP SWAP2 SWAP1 POP JUMP JUMPDEST PUSH0 DUP3 DUP3 MSTORE PUSH1 0x20 DUP3 ADD SWAP1 POP SWAP3 SWAP2 POP POP JUMP JUMPDEST DUP3 DUP2 DUP4 MCOPY PUSH0 DUP4 DUP4 ADD MSTORE POP POP POP JUMP JUMPDEST PUSH0 PUSH2 0x2D9 DUP3 PUSH2 0x2A7 JUMP JUMPDEST PUSH2 0x2E3 DUP2 DUP6 PUSH2 0x2B1 JUMP JUMPDEST SWAP4 POP PUSH2 0x2F3 DUP2 DUP6 PUSH1 0x20 DUP7 ADD PUSH2 0x2C1 JUMP JUMPDEST PUSH2 0x2FC DUP2 PUSH2 0x12C JUMP JUMPDEST DUP5 ADD SWAP2 POP POP SWAP3 SWAP2 POP POP JUMP JUMPDEST PUSH0 PUSH1 0x20 DUP3 ADD SWAP1 POP DUP2 DUP2 SUB PUSH0 DUP4 ADD MSTORE PUSH2 0x31F DUP2 DUP5 PUSH2 0x2CF JUMP JUMPDEST SWAP1 POP SWAP3 SWAP2 POP POP JUMP JUMPDEST PUSH32 0x4E487B7100000000000000000000000000000000000000000000000000000000 PUSH0 MSTORE PUSH1 0x22 PUSH1 0x4 MSTORE PUSH1 0x24 PUSH0 REVERT JUMPDEST PUSH0 PUSH1 0x2 DUP3 DIV SWAP1 POP PUSH1 0x1 DUP3 AND DUP1 PUSH2 0x36B JUMPI PUSH1 0x7F DUP3 AND SWAP2 POP JUMPDEST PUSH1 0x20 DUP3 LT DUP2 SUB PUSH2 0x37E JUMPI PUSH2 0x37D PUSH2 0x327 JUMP JUMPDEST JUMPDEST POP SWAP2 SWAP1 POP JUMP JUMPDEST PUSH0 DUP2 SLOAD SWAP1 POP PUSH2 0x392 DUP2 PUSH2 0x354 JUMP JUMPDEST SWAP1 POP SWAP2 SWAP1 POP JUMP JUMPDEST PUSH0 DUP2 SWAP1 POP DUP2 PUSH0 MSTORE PUSH1 0x20 PUSH0 KECCAK256 SWAP1 POP SWAP2 SWAP1 POP JUMP JUMPDEST PUSH0 DUP2 SWAP1 POP DUP2 PUSH0 MSTORE PUSH1 0x20 PUSH0 KECCAK256 SWAP1 POP SWAP2 SWAP1 POP JUMP JUMPDEST PUSH0 PUSH1 0x20 PUSH1 0x1F DUP4 ADD DIV SWAP1 POP SWAP2 SWAP1 POP JUMP JUMPDEST PUSH0 DUP3 DUP3 SHL SWAP1 POP SWAP3 SWAP2 POP POP JUMP JUMPDEST PUSH0 PUSH1 0x8 DUP4 MUL PUSH2 0x407 PUSH32 0xFFFFFFFFFFFFFFFFFFFFFFFFFFFFFFFFFFFFFFFFFFFFFFFFFFFFFFFFFFFFFFFF DUP3 PUSH2 0x3CC JUMP JUMPDEST PUSH2 0x411 DUP7 DUP4 PUSH2 0x3CC JUMP JUMPDEST SWAP6 POP DUP1 NOT DUP5 AND SWAP4 POP DUP1 DUP7 AND DUP5 OR SWAP3 POP POP POP SWAP4 SWAP3 POP POP POP JUMP JUMPDEST PUSH0 DUP2 SWAP1 POP SWAP2 SWAP1 POP JUMP JUMPDEST PUSH0 DUP2 SWAP1 POP SWAP2 SWAP1 POP JUMP JUMPDEST PUSH0 PUSH2 0x455 PUSH2 0x450 PUSH2 0x44B DUP5 PUSH2 0x429 JUMP JUMPDEST PUSH2 0x432 JUMP JUMPDEST PUSH2 0x429 JUMP JUMPDEST SWAP1 POP SWAP2 SWAP1 POP JUMP JUMPDEST PUSH0 DUP2 SWAP1 POP SWAP2 SWAP1 POP JUMP JUMPDEST PUSH2 0x46E DUP4 PUSH2 0x43B JUMP JUMPDEST PUSH2 0x482 PUSH2 0x47A DUP3 PUSH2 0x45C JUMP JUMPDEST DUP5 DUP5 SLOAD PUSH2 0x3D8 JUMP JUMPDEST DUP3 SSTORE POP POP POP POP JUMP JUMPDEST PUSH0 PUSH0 SWAP1 POP SWAP1 JUMP JUMPDEST PUSH2 0x499 PUSH2 0x48A JUMP JUMPDEST PUSH2 0x4A4 DUP2 DUP5 DUP5 PUSH2 0x465 JUMP JUMPDEST POP POP POP JUMP JUMPDEST JUMPDEST DUP2 DUP2 LT ISZERO PUSH2 0x4C7 JUMPI PUSH2 0x4BC PUSH0 DUP3 PUSH2 0x491 JUMP JUMPDEST PUSH1 0x1 DUP2 ADD SWAP1 POP PUSH2 0x4AA JUMP JUMPDEST POP POP JUMP JUMPDEST PUSH1 0x1F DUP3 GT ISZERO PUSH2 0x50C JUMPI PUSH2 0x4DD DUP2 PUSH2 0x399 JUMP JUMPDEST PUSH2 0x4E6 DUP5 PUSH2 0x3BD JUMP JUMPDEST DUP2 ADD PUSH1 0x20 DUP6 LT ISZERO PUSH2 0x4F5 JUMPI DUP2 SWAP1 POP JUMPDEST PUSH2 0x509 PUSH2 0x501 DUP6 PUSH2 0x3BD JUMP JUMPDEST DUP4 ADD DUP3 PUSH2 0x4A9 JUMP JUMPDEST POP POP JUMPDEST POP POP POP JUMP JUMPDEST PUSH0 DUP3 DUP3 SHR SWAP1 POP SWAP3 SWAP2 POP POP JUMP JUMPDEST PUSH0 PUSH2 0x52C PUSH0 NOT DUP5 PUSH1 0x8 MUL PUSH2 0x511 JUMP JUMPDEST NOT DUP1 DUP4 AND SWAP2 POP POP SWAP3 SWAP2 POP POP JUMP JUMPDEST PUSH0 PUSH2 0x544 DUP4 DUP4 PUSH2 0x51D JUMP JUMPDEST SWAP2 POP DUP3 PUSH1 0x2 MUL DUP3 OR SWAP1 POP SWAP3 SWAP2 POP POP JUMP JUMPDEST DUP2 DUP2 SUB PUSH2 0x562 JUMPI POP POP PUSH2 0x637 JUMP JUMPDEST PUSH2 0x56B DUP3 PUSH2 0x384 JUMP JUMPDEST PUSH8 0xFFFFFFFFFFFFFFFF DUP2 GT ISZERO PUSH2 0x584 JUMPI PUSH2 0x583 PUSH2 0x13C JUMP JUMPDEST JUMPDEST PUSH2 0x58E DUP3 SLOAD PUSH2 0x354 JUMP JUMPDEST PUSH2 0x599 DUP3 DUP3 DUP6 PUSH2 0x4CB JUMP JUMPDEST PUSH0 PUSH1 0x1F DUP4 GT PUSH1 0x1 DUP2 EQ PUSH2 0x5C6 JUMPI PUSH0 DUP5 ISZERO PUSH2 0x5B4 JUMPI DUP3 DUP8 ADD SLOAD SWAP1 POP JUMPDEST PUSH2 0x5BE DUP6 DUP3 PUSH2 0x539 JUMP JUMPDEST DUP7 SSTORE POP PUSH2 0x630 JUMP JUMPDEST PUSH1 0x1F NOT DUP5 AND PUSH2 0x5D4 DUP8 PUSH2 0x3AB JUMP JUMPDEST SWAP7 POP PUSH2 0x5DF DUP7 PUSH2 0x399 JUMP JUMPDEST PUSH0 JUMPDEST DUP3 DUP2 LT ISZERO PUSH2 0x606 JUMPI DUP5 DUP10 ADD SLOAD DUP3 SSTORE PUSH1 0x1 DUP3 ADD SWAP2 POP PUSH1 0x1 DUP6 ADD SWAP5 POP PUSH1 0x20 DUP2 ADD SWAP1 POP PUSH2 0x5E1 JUMP JUMPDEST DUP7 DUP4 LT ISZERO PUSH2 0x623 JUMPI DUP5 DUP10 ADD SLOAD PUSH2 0x61F PUSH1 0x1F DUP10 AND DUP3 PUSH2 0x51D JUMP JUMPDEST DUP4 SSTORE POP JUMPDEST PUSH1 0x1 PUSH1 0x2 DUP9 MUL ADD DUP9 SSTORE POP POP POP JUMPDEST POP POP POP POP POP POP JUMPDEST JUMP INVALID LOG2 PUSH5 0x6970667358 0x22 SLT KECCAK256 DUP13 SGT NUMBER 0xCF CALLDATASIZE CREATE2 JUMPF 0xB6B7 EXTDELEGATECALL 0xDB 0x4D 0xED BYTE PUSH19 0x5424ED15CB2C4A37A2AAB161A4069462A6473 PUSH16 0x6C634300081D00330000000000000000 "
				},
				"gasEstimates": {
					"creation": {
						"codeDepositCost": "329400",
						"executionCost": "366",
						"totalCost": "329766"
					},
					"external": {
						"retrieve()": "infinite",
						"store(string)": "infinite"
					}
				},
				"methodIdentifiers": {
					"retrieve()": "2e64cec1",
					"store(string)": "131a0680"
				}
			},
			"storageLayout": {
				"storage": [
					{
						"astId": 3,
						"contract": "contracts/HelloWorld.sol:HelloWorld",
						"label": "value",
						"offset": 0,
						"slot": "0",
						"type": "t_string_storage"
					}
				],
				"types": {
					"t_string_storage": {
						"encoding": "bytes",
						"label": "string",
						"numberOfBytes": "32"
					}
				}
			},
			"userdoc": {
				"kind": "user",
				"methods": {},
				"version": 1
			}
		}
	}
}